:1015FD00E4F55DC286D285D2877F01FE1216B1E574
:10160D00A030E70E055DE55DD3946440F2C2877F9F
:06161D000022C2877F01DC
:0116230022A4
:021544008F5BBB
:10154600E4F55C1215FDEF70107F01FE1216B10571
:101556005CE55CD3946440EB22C286C285C2878573
:0D1566005BA0D2877F057E001216B1C28700
:011573002255
:021574008F5B8B
:10157600E4F55C1215FDEF70107F01FE1216B10541
:101586005CE55CD3946440EB22D286C285C2878533
:0D1596005BA0D2877F057E001216B1C287D0
:0115A3002225
:0F1729007F301215447F0C1215447F01021544C6
:10162400EF14600E14600F1460102403700E7F809A
:10163400800A7F9080067F8880027F98EF2DFF02CA
:0216440015444B
:0812AA008B558A5689578D58B7
:1012B200E4F55AAD59AF588046E55745566045ABFF
:1012C200550557E557AA567002055614F9120D95A1
:1012D2006032AA56A95790FFFF120DAEFF12157485
:1012E200055AE55A2559FFE433FEC3EF9410EE6424
:1012F20080948040C4E4F559F55A0558AF58FD1260
:04130200162480B578
:0113060022C4
:10106200E4F55575900FE590B40F03AF55227F0A52
:101072007E001216B1E4FE7F7FA806EF088001030E
:10108200D8FDF590AF9053070FEF640F6043AF9018
:10109200E59070048F55803FE59070047D018002D9
:1010A2007D00ED640160048F55802CE59070047D15
:1010B2000180027D00ED640260048F558019E59085
:1010C20070047D0180027D00ED640360048F558011
:1010D200060EEE640470A0E590640F600575900F33
:0410E20080F5AF5591
:0110E60022E7
:100F44008F55E555120EF20F82000FD0770FCB7B31
:100F54000FC67D0FC17E0FBCB70FB7BB0FB2BD0F5D
:100F6400ADBE0FA8D70FA3DB0F9EDD0F99DE0F9444
:100F7400E70F8FEB0F8AED0F85EE00000FD37F0094
:100F84002275556480497555238044755530803FDA
:100F940075552A803A755563803575553980307595
:100FA4005538802B755537802675556280217555C7
:100FB40036801C755535801775553480127555610A
:100FC400800D75553380087555328003755531AFE2
:020FD4005522A4
:1016B1007D807C04ED1D70011C144C70F7EF1F70D0
:0616C100011E144E70EA48
:0116C7002200
:0217990000222C
:0A177C0000007F027E0FDEFEDFFC9E
:011786002240
:0F173800D283121799D284121799C2830217997C
:0F174700C283121799D284121799D2830217996D
:1016C800D28412179930830AAF650565EFC394FA7F
:0716D80040F3C284021799E0
:0C176400D284121799D283C28402179914
:0A178700D283121799D28402179939
:1015A4008F66E4F565E56625E0F566C28412179951
:1015B4009283121799D2841217990565E565C3942D
:0D15C4000840E2C284121799D283021799E1
:1015D100C284121799E4F565D284121799A283E4A3
:1015E10033F566E56725E04566F567C2841217990C
:0B15F1000565E565C3940840DFAF67A7
:0115FC0022CC
:10150B008F5E8C5F8D608B61121738AF621215A4E2
:10151B002005071216C8AF5E80113005111216C8D0
:10152B00E55FFF1215A41216C8AF601215A41216B0
:09153B00C8AF611215A4021747A4
:08135B008F5F8C608D618B62D5
:10136300121738AF621215A42005071216C8AF5F13
:1013730080113005141216C8E560FF1215A4121669
:10138300C8AF611215A41216C8121738AF6312152D
:10139300A41216C81215D18F641216C8121764123C
:0413A3001747AF64D5
:0113A7002223
:08143F008B558A5689578D5820
:10144700E4F55DE55DC3955B5035E558255DFFE542
:101457005D7C00255AFDEC3559FCAB55AA56A957BA
:10146700855D82758300120DAEFB855C62A20492D6
:0F1477000512150B7F0F7E001216B1055D80C4A4
:011486002243
:081487008B558A5689578D58D8
:10148F00E4F55EE55EC3955B5030E558255EFFE5FC
:10149F005E7C00255AFDEC3559FC855D63A20492F4
:1014AF0005AB5C12135BAB55AA56A957855E8275C7
:0A14BF008300EF120DDB055E80C90B
:0114C9002200
:100BDB0053554E004D4F4E005455530057454E0044
:100BEB005448520046524900534154002020536D43
:100BFB006172742020486F6D652020006F70656EE8
:100C0B003A432C6F75743A4200202020202020207C
:100C1B00202020202000696E707574206572726F21
:100C2B007221007573657220667265657A65642141
:100C3B00007573723A00503A00503A202020202061
:100C4B002020202020006C656E206C696D6974205B
:100C5B00362100503A202020202020202020004147
:100C6B00545E534D534E3D31333235303733383676
:100C7B0032372050617373776F72645F4572726F96
:100C8B00725F54696D65735F546F6F5F4D616E7901
:100C9B0021596F755F4163636F756E745F48617344
:100CAB005F4265656E5F467265657A6564210070AB
:100CBB00617373776F7264206572726F7221007447
:100CCB00696D65733A0020202020202020202020F1
:100CDB00202020202000623A206F7574646F6F72A1
:100CEB0020200073656520796F75210077656C6333
:100CFB006F6D652041444D494E00312E616374691F
:100D0B0076652075737200322E6E65772070617375
:100D1B0073776F7264006F746865727320746F20E1
:100D2B007175697400696E7075743A004F6E6C79E9
:100D3B0020307E39006E657720503A005468696523
:100D4B006620696E20726F6F6D210053656E64694A
:100D5B006E6720534D53212020202020003031324C
:100D6B003334353637383900280025001600060095
:100D7B0019000C0011FF0BDBFF0BDFFF0BE3FF0B6D
:0A0D8B00E7FF0BEBFF0BEFFF0BF38C
:10166300C102C100C1014100170042001500004240
:0916730000120000420018000002
:0F124900F530F558755900755A31FB7A00792A3E
:101258008B558A568957E4900017F0AB55AA56A9C2
:1012680057900017E0FFF582758300120DAEFE60FF
:1012780025EFC39407501FAB58AA59A95A900017D5
:10128800E0F582758300120DAE6E6002D3229000E5
:1012980017E004F080C5900017E0C39406500122BF
:0212A800C3225F
:10170700438901758C4C758AD0D28CD2A9D2B9D2B3
:02171700AF22FF
:10171900C288C2B8300403D38001C392A8D2AF22D1
:10000E00D2B7121787C282C28112167D7562A0D234
:10001E00057B037D807C02E4FF12150B121729D29B
:10002E00041217191217077F0812154412106212C4
:10003E000F44EF60F77F0C1215441217297BFF7ADD
:10004E000B79F7E4F559FD1212AA7BFF7A0C7907AA
:10005E00E4F5597D01804C7BFF7A0C7914E4F55957
:10006E007D031212AA121062120F447E008E538F5D
:10007E0054EF60F1E4FD7F02121624AF5412157492
:10008E00E554646345536020E5546462455360183B
:10009E00E5546461455360107BFF7A0C7921E4F5D9
:1000AE00597D031212AA80AFE5536003020035E5B5
:1000BE0054249F70030208541470030208471460FE
:1000CE0003020035C2A8C28C7E007F117D007B002A
:1000DE007A007938120F187E007F077D007B007A38
:1000EE00007931120F187B007A0079387559027534
:1000FE005A00755B10755CA0755DA1D204E4FD120B
:10010E0014877B007A007931755902755A10755B28
:10011E0006755CA0755DA1D204E4FD1214877563AB
:10012E00A1D2057BA07D807C02E4FF12135B8F4978
:10013E00E54970107BFF7A0C792EF5597D0312126A
:10014E00AA0200351217297BFF7A0C793CE4F55987
:10015E00FD1212AA7B007A007938755902E4FD125D
:10016E0012AA7BFF7A0C7941E4F5597D011212AA8D
:10017E007D017F011216247E007F077D007B007AB1
:10018E0000792A120F18E4F54AD203E54AD39406F1
:10019E004036E4F54A7BFF7A0C7944F5597D01121D
:1001AE0012AA7BFF7A0C7951E4F5597D021212AA3C
:1001BE007D017F011216247E007F077D007B007A71
:1001CE0000792A120F18D2007F0E121544121062F7
:1001DE00120F447E008E538F54EF60F1E554646429
:1001EE004553703FE54AD3940040387BFF7A0C7933
:1001FE005EE4F5597D011212AA7D017F01121624CB
:10020E00E4900017F0E54A14FF900017E0C39F50EA
:10021E000D7F2A121574900017E004F080E7154A3E
:10022E00020363E554642A4553600302032D121240
:10023E00494005C2030203E31549E5497061756241
:10024E00A0D205FB7D807C02FF12150BD2817F327E
:10025E007E001216B1C2817F327E001216B1D2819B
:10026E007F327E001216B1C2817F327E001216B12D
:10027E00D2817F327E001216B1C2817F327E001291
:10028E0016B17BFF7A0C796A1216F47F0D12179154
:10029E007F0A1217917FE87E031216B10203E37BE9
:1002AE00FF7A0C79BAE4F5597D021212AA7BFF7A15
:1002BE000C79CAE4F5597D031212AAE549900D682E
:1002CE0093FF121574E4F54A7BFF7A0C795EF559AB
:1002DE007D011212AA7E007F077D007B007A0079D5
:1002EE002A120F187D017F01121624D200E549B49F
:1002FE0002028017E5496401705BD2817F32FE12E3
:10030E0016B1C2817F327E001216B1D2817F327E4B
:10031E00001216B1C2817F327E001216B18036E510
:10032E00546423455370030203E3E554646245535A
:10033E0070030203E3E554646145536008E55464B9
:10034E0063455370107BFF7A0C7921E4F5597D02D9
:10035E001212AAD200C3E5549430E5539400500310
:10036E00020199D3E5549439E553940040030201F8
:10037E0099E54A94055007742A254AF8A654054A69
:10038E007D017F01121624E4900017F0900017E013
:10039E00C3954A500D7F2A121574900017E004F091
:1003AE0080EA7F0C1215442000030201997BFF7A2C
:1003BE000C79D1E4F5597D021212AA7BFF7A0C79E1
:1003CE00D1E4F5597D031212AA7D017F0112162484
:1003DE00C200020199D28C300303020847D2817FFA
:1003EE00C87E001216B1C281C2B77FC87E00121637
:1003FE00B1D2B71217297F0F120006EF30E70C1299
:10040E0016DF7BFF7A0D79721213F57B017A007974
:10041E00041213A8900010E07002A3E0700C1216E4
:10042E00DF7BFF7A0D79721213F57B017A00790466
:10043E001213A8900010A3E0FF90000EA3E0FD9011
:10044E00000CA3E0FB1214CA7BFF7A0C79E1E4F5F1
:10045E00597D021212AA121062120F447553008FA8
:10046E0054E5544553602DE554646245537025128E
:10047E0015747BFF7A0C79EEE4F5597D031212AAFE
:10048E00C2B77FC87E001216B1D2B7754D00754E39
:10049E006402002A3002B1C2AF7B017A00790412E5
:1004AE0013A87B017A0079001211D790000CE0FEA0
:1004BE00A3E0FF654E7003EE654D70030205F18EED
:1004CE004D8F4EE4FDFF1216247F321215747F30CD
:1004DE00121574900010E0FEA3E0FF7C007D0A125E
:1004EE000E0F74682FF582740D3EF583E493FF12A0
:1004FE001574900010E0FEA3E0FF7C007D0A120E42
:10050E000F74682DF582740D3CF583E493FF12157C
:10051E00747F2F12157490000EE0FEA3E0FF7C0096
:10052E007D0A120E0F74682FF582740D3EF583E46A
:10053E0093FF12157490000EE0FEA3E0FF7C007D89
:10054E000A120E0F74682DF582740D3CF583E49338
:10055E00FF1215747F2F12157490000CE0FEA3E0AD
:10056E00FF7C007D0A120E0F74682FF582740D3E0B
:10057E00F583E493FF12157490000CE0FEA3E0FFE8
:10058E007C007D0A120E0F74682DF582740D3CF5F9
:10059E0083E493FF121574E4F54AE54A70047F2054
:1005AE00803290000AE0FEA3E0900D7D75F00312FC
:1005BE000EE6EE75F003A42583F583E493FB740138
:1005CE0093FA7402937E00254AF9EE3AFA90FFFFF1
:1005DE00120DAEFF121574054AE54AC3940440BAD3
:1005EE00E4F54A900004E0FEA3E0FF654C7003EED4
:1005FE00654B70030206D48E4B8F4CE4FD7F0112C7
:10060E001624900008E0FEA3E0FF7C007D0A120E87
:10061E000F74682FF582740D3EF583E493FF121567
:10062E0074900008E0FEA3E0FF7C007D0A120E0F1E
:10063E0074682DF582740D3CF583E493FF121574E6
:10064E007F3A121574900006E0FEA3E0FF7C007D59
:10065E000A120E0F74682FF582740D3EF583E49323
:10066E00FF121574900006E0FEA3E0FF7C007D0AE9
:10067E00120E0F74682DF582740D3CF583E493FF12
:10068E001215747F3A121574900004E0FEA3E0FF79
:10069E007C007D0A120E0F74682FF582740D3EF5E4
:1006AE0083E493FF121574900004E0FEA3E0FF7C38
:1006BE00007D0A120E0F74682DF582740D3CF583C1
:1006CE00E493FF121574900000E0FEA3E0FFB55016
:1006DE0013EEB54F0FA3E065517004A3E0655270A1
:1006EE0003020840EF20E7057F200207A0900000DC
:1006FE00E0FFA3E0900015CFF0A3EFF0900015E01F
:10070E00FEA3E07802C333CE33CED8F9F0EE9000DC
:10071E0015F0900002E0FEA3E07806CEC313CE13D0
:10072E00D8F9FF900002EEF0A3EFF0900016E02F44
:10073E00F0900015E03EF0E0FEA3E0F4FFEEF4FED4
:10074E00EF2401FFE43E900015F0A3EFF0900015AA
:10075E00E05403F0E0FAA3E0FB5403FF900002E440
:10076E00F0A3EFF0900002E0FEA3E0FF7C007D1905
:10077E00120DFD900002EEF0A3EFF0EBAE02780248
:10078E00CEC313CE13D8F9FF900000EEF0A3EFF016
:10079E007F2D121574900000E0FEA3E0FF7C007D1B
:1007AE000A120E0F74682FF582740D3EF583E493D2
:1007BE00FF121574900000E0FEA3E0FF7C007D0A9E
:1007CE00120E0F74682DF582740D3CF583E493FFC1
:1007DE001215747F2E121574900002E0FEA3E0FF36
:1007EE007C007D0A120E0F74682FF582740D3EF593
:1007FE0083E493FF121574900002E0FEA3E0FF7CE9
:10080E00007D0A120E0F74682DF582740D3CF5836F
:10081E00E493FF1215747F271215747F431215741B
:10082E00900004E0F54FA3E0F550A3E0F551A3E0EE
:10083E00F552C202D2AF0204A2D204121719D28C00
:10084E0012172902002AC2A8C28C7E007F117D00D9
:10085E007B007A007938120F187E007F077D007BAF
:10086E00007A007931120F187B007A0079387559A9
:10087E0001755A00755B10755CA0755DA1D204E41C
:10088E00FD1214877B007A007931755901755A2053
:10089E00755B06755CA0755DA1D204E4FD1214872C
:1008AE001217297BFF7A0C79F7E4F559FD1212AA7B
:1008BE007B007A007938E4F5597D011212AA7BFF8C
:1008CE007A0C7941E4F5597D021212AA7D017F025C
:1008DE001216247E007F077D007B007A00792A1293
:1008EE000F18E4F54AD203E54AD394064036E4F5F0
:1008FE004A7BFF7A0C7944F5597D021212AA7BFFCE
:10090E007A0C7951E4F5597D031212AA7D017F020A
:10091E001216247E007F077D007B007A00792A1252
:10092E000F18D2007F0E121544121062120F447E61
:10093E00008E538F54EF60F1E55464644553703F5D
:10094E00E54AD3940040387BFF7A0C795EE4F55982
:10095E007D021212AA7D017F02121624E490001766
:10096E00F0E54A14FF900017E0C39F500D7F2A1246
:10097E001574900017E004F080E7154A020A18E596
:10098E0054642A4553704D1212494005C203020A9F
:10099E008A7BFF7A0C79BAE4F5597D031212AAE428
:1009AE00F54A7BFF7A0C795EF5597D021212AA7E0A
:1009BE00007F077D007B007A00792A120F187D01D7
:1009CE007F02121624D200D2817F327E001216B11F
:1009DE00C2818036E554642345537003020A8AE5CA
:1009EE0054646245537003020A8AE55464614553A8
:1009FE006008E5546463455370107BFF7A0C7921CF
:100A0E00E4F5597D031212AAD200C3E5549430E5E1
:100A1E0053940050030208F5D3E5549439E55394EA
:100A2E000040030208F5E54A94055007742A254A4A
:100A3E00F8A654054A7D017F02121624E490001791
:100A4E00F0900017E0C3954A500D7F2A121574904E
:100A5E000017E004F080EA7F0C1215442000030218
:100A6E0008F57BFF7A0C79D1E4F5597D031212AAB1
:100A7E007D017F02121624C2000208F53003030224
:100A8E000BD11217297BFF7A0D7905E4F559FD126A
:100A9E0012AA7BFF7A0D7912E4F5597D011212AA82
:100AAE007BFF7A0D7921E4F5597D021212AA7BFFA4
:100ABE007A0D7930E4F5597D031212AA12106212E2
:100ACE000F447E008E538F54EF60F1AF54121574A5
:100ADE00E5546431455370127562A0D2057B037DD7
:100AEE00807C02FF12150B020BD1E5546432455384
:100AFE006003020BD11217297BFF7A0D7937E4F5CB
:100B0E0059FD1212AA7BFF7A0C7951E4F5597D0139
:100B1E001212AA7BFF7A0D7940E4F5597D0212126A
:100B2E00AA7E007F077D007B007A00792A120F18BB
:100B3E00E4900017F0900017E0C394065055121081
:100B4E0062120F447E008E538F54EF60F1C3E55452
:100B5E009430E5539400401BD3E5549439E55394F7
:100B6E000050107F2A121574900017E0242AF8A660
:100B7E00548018E55464234553700AD20412171991
:100B8E00D28C020048900017E014F0900017E00499
:100B9E00F080A2121062120F447E008E538F54EF1B
:100BAE0060F1E554642A45537019F530FB7A0079EB
:100BBE002A755902755A10755B07755CA0D204FD33
:0D0BCE0012143FD204121719D28C020048F5
:030003000210E701
:1010E700C0E0C0F0C083C082C0D075D008C2A9C21A
:1010F700A8D2827F587E021216B1C2827F327E004A
:101107001216B17F0C1215447BFF7A0D794775597A
:10111700007D031212AA30011EC2017BFF7A0D79EE
:10112700567559007D031212AAD2817FC87E00121C
:1011370016B1C2811216977FF47E011216B11217EB
:10114700291217297F08121544D2A8D2A9D0D0D0C6
:0811570082D083D0F0D0E03219
:03000B0002115F80
:10115F00C0E0C083C082C0D0C28C758C4C758AD061
:10116F00D28C900014E0C394064012D202E4F090A7
:10117F000019E004F07006900018E004F0C390002E
:10118F0019E09432900018E09400402D900012E086
:10119F007004A3E06401700AD201900012F0A3F072
:1011AF00800E900013E004F07006900012E004F03F
:1011BF00900018E4F0A3F08006900014E004F0D043
:0811CF00D0D082D083D0E032C1
:0C1770007FDD1F7EBF3E7FDF3E9F1E5FBF
:10164600ED75F00A84C454F0FEED75F00A84EE25BB
:0D165600F0FB7562D0C205E4FDFC02150B2F
:0E1756007563D1C2057BD0E4FDFC12135B224B
:0613A8008B558A5689579F
:1013AE00E4FD7F0F121646E4F559AF591217568F0A
:1013BE0058E558C4540F75F00AA4FFE558540F7C35
:1013CE00002FFFEC35F0FEAB55E557F92402F5572B
:1013DE00E556FA3400F556EE8FF0120EC70559E5B4
:0613EE0059C3940740C43E
:0113F40022D6
:0611D7008B558A56895772
:1011DD00E4FD7F0F1216467D207F0E121646E4F5B4
:1011ED0059E5592411FF1217568F58E5597013AB55
:1011FD0055E557F92402F557E556FA3400F556E44E
:10120D00801FE559B4011EAB55AA56A957120E649D
:10121D0020E712E558C41313540375F019A4FFE524
:10122D00F08FF0800AAB55AA56A957E48558F012F5
:0B123D000EC70559E559C3940240A6F6
:011248002283
:040006001217562255
:0613F5008B558A56895752
:1013FB00E4F558AB55AA56A95775F002E558A4F574
:10140B008285F083120E8FFDAF581216460558E5F4
:10141B0058C3940740DDAB55AA56A95790000C1240
:10142B000E8FFF90000A120E8FFD900008120E8F88
:04143B00FB0214CAD2
:1016DF00E4FD7F021216467D047F0E121646E4FDCE
:0516EF007F0F0216460A
:0214CA00AE056D
:1014CC00EE90176F93C4135407FDEEC394035009A9
:1014DC00EF54036004BE02000DEF1313543F2F2D85
:1014EC00FFE433FE7C00EF2BFFEC3ECF2402CF3425
:0F14FC0000FE7D07120E0FED04FD7F0302164662
:1013070041545E534D534E3D3133323530373338C8
:1013170036323720415F74686965665F656E74654C
:10132700726E65645F6D795F686F7573652151755E
:1013370069636B6C795F636F6D655F6261636B5F38
:10134700616E645F63616C6C5F7468655F706F6C1E
:0413570069632100A5
:081791008F993099FDC29922E5
:1016F400120D95FF600C121791740129F9E43AFA5E
:0317040080EE2252
:10167D0075985075CDFF75CCFD75CBFF75CAFDD234
:0A168D00CCD2CDC2C9C2CBD2CA2212
:101697007BFF7A1379071216F47F0D1217917F0AD1
:0A16A7001217917FE87E030216B1CE
:03000000020FD616
:0C0FD600787FE4F6D8FD75816702101DDD
:100D9500BB010689828A83E0225002E722BBFE025C
:090DA500E32289828A83E493228F
:100DAE00BB010CE58229F582E5833AF583E02250FA
:100DBE0006E92582F8E622BBFE06E92582F8E22244
:0D0DCE00E58229F582E5833AF583E493225E
:100DDB00F8BB010DE58229F582E5833AF583E8F04E
:100DEB00225006E92582C8F622BBFE05E92582C8FA
:020DFB00F222E2
:100DFD00EF8DF0A4A8F0CF8CF0A428CE8DF0A42E0A
:020E0D00FE22C3
:100E0F00BC000BBE0029EF8DF084FFADF022E4CCC7
:100E1F00F875F008EF2FFFEE33FEEC33FCEE9DEC90
:100E2F00984005FCEE9DFE0FD5F0E9E4CEFD22EDD6
:100E3F00F8F5F0EE8420D21CFEADF075F008EF2F20
:100E4F00FFED33FD4007985006D5F0F222C398FD11
:050E5F000FD5F0EA22AE
:100E6400BB010A89828A83E0F5F0A3E02250068759
:100E7400F009E71922BBFE07E3F5F009E31922891B
:0B0E8400828A83E493F5F0740193224E
:100E8F00BB0110E58229F582E5833AF583E0F5F0A1
:100E9F00A3E0225009E92582F886F008E622BBFE7E
:100EAF000AE92582F8E2F5F008E222E5832AF583C4
:080EBF00E993F5F0A3E9932289
:100EC700BB010A89828A83F0E5F0A3F0225006F776
:0F0ED70009A7F01922BBFE06F3E5F009F3192273
:0C0EE600A42582F582E5F03583F5832217
:100EF200D083D082F8E4937012740193700DA3A38F
:100F020093F8740193F5828883E4737402936860A2
:060F1200EFA3A3A380DFA2
:100F1800EF4E6012EF60010EEDBB010B89828A83F0
:100F2800F0A3DFFCDEFA2289F05007F709DFFCA9FD
:0C0F3800F022BBFEFCF309DFFCA9F02254
:100FE20002000EE493A3F8E493A34003F68001F217
:100FF20008DFF48029E493A3F85407240CC8C33310
:10100200C4540F4420C8834004F456800146F6DFDE
:10101200E4800B0102040810204080901663E47EF5
:10102200019360BCA3FF543F30E509541FFEE493D3
:10103200A360010ECF54C025E060A840B8E493A39A
:10104200FAE493A3F8E493A3C8C582C8CAC583CAC5
:10105200F0A3C8C582C8CAC583CADFE9DEE780BE7D
:01167C00006D
:00000001FF
